:020000020000FC
:100000000DC00105030B09070F0D060E1115131B7B
:1000100019171F1D161E31352E333B390FE304B956
:10002000002705B958D005D007D04BD01ED038D006
:10003000FBCFA0E0B1E008950F93FBDF59D00D3066
:1000400081F00A3071F0013618F00B3708F40052D5
:10005000003221F0013490F30B3580F70D93A0317D
:1000600069F70FEF0C930F9108950F931F93E1DF42
:100070000D910F3F91F0003261F0E2E0F0E00154A9
:10008000E00FF11D149115B91CD0112715B919D025
:10009000EFCF112715B91AD0EBCF1F910F9108950B
:1000A0000F93AF93BF93C5DF0FEF0D93A031E1F72F
:1000B000BF91AF910F91089580E69AEE0197F1F705
:1000C00008951DE7F9DF1A95E9F708951CEBF4DFB1
:1000D0001A95E9F7089500E00093C50007E600933C
:1000E000C40008E10093C10006E00093C200089537
:0E00F0002091C00027FFFCCF0091C6000895AC
:00000001FF
