:020000020000FC
:100000000DC03E3A3C343638303239312E2A2C2459
:100010002628202229210E0A110C04060FE304B918
:10002000002705B95ED005D007D051D01ED039D0F9
:10003000FBCFA0E0B1E008950F93FBDF5FD00D3060
:1000400081F00A3071F0013618F00B3708F40052D5
:10005000003221F0013490F30B3580F70D93A0327C
:1000600069F70FEF0C930F9108950F931F93E1DF42
:100070000D910F3F99F0003261F0E2E0F0E00154A1
:10008000E00FF11D149115B922D0112715B91AD01E
:10009000EFCF1FE315B91BD01127EACF1F910F91A6
:1000A00008950F93AF93BF93C4DF0FEF0D93A0326A
:1000B000E1F7BF91AF910F91089580E69AEE019715
:1000C000F1F708951EE3F9DF1A95E9F708951DE7A2
:1000D000F4DF1A95E9F708951CEBEFDF1A95E9F7BD
:1000E000089500E00093C50007E60093C40008E10E
:1000F0000093C10006E00093C20008952091C00063
:0A01000027FFFCCF0091C600089510
:00000001FF
